{
  "contractName": "Certificate",
  "abi": [
    {
      "constant": true,
      "inputs": [
        {
          "internalType": "string",
          "name": "_fileHash",
          "type": "string"
        },
        {
          "internalType": "uint256",
          "name": "_userId",
          "type": "uint256"
        }
      ],
      "name": "isFileHashUserIdExists",
      "outputs": [
        {
          "internalType": "bool",
          "name": "",
          "type": "bool"
        }
      ],
      "payable": false,
      "stateMutability": "view",
      "type": "function"
    },
    {
      "constant": false,
      "inputs": [
        {
          "internalType": "string",
          "name": "_fileHash",
          "type": "string"
        },
        {
          "internalType": "string",
          "name": "_summaryHash",
          "type": "string"
        },
        {
          "internalType": "uint256",
          "name": "_userId",
          "type": "uint256"
        }
      ],
      "name": "saveUserIdHashes",
      "outputs": [],
      "payable": false,
      "stateMutability": "nonpayable",
      "type": "function"
    },
    {
      "constant": true,
      "inputs": [
        {
          "internalType": "string",
          "name": "_summaryHash",
          "type": "string"
        },
        {
          "internalType": "uint256",
          "name": "_userId",
          "type": "uint256"
        }
      ],
      "name": "isSummaryHashUserIdExists",
      "outputs": [
        {
          "internalType": "bool",
          "name": "",
          "type": "bool"
        }
      ],
      "payable": false,
      "stateMutability": "view",
      "type": "function"
    }
  ],
  "bytecode": "0x608060405234801561001057600080fd5b50610580806100206000396000f3fe608060405234801561001057600080fd5b50600436106100415760003560e01c8063319ac725146100465780636aaf09631461012357806370828d8914610200575b600080fd5b6101096004803603604081101561005c57600080fd5b810190808035906020019064010000000081111561007957600080fd5b82018360208201111561008b57600080fd5b803590602001918460018302840111640100000000831117156100ad57600080fd5b91908080601f016020809104026020016040519081016040528093929190818152602001838380828437600081840152601f19601f8201169050808301925050505050505091929192908035906020019092919050505061035c565b604051808215151515815260200191505060405180910390f35b6101e66004803603604081101561013957600080fd5b810190808035906020019064010000000081111561015657600080fd5b82018360208201111561016857600080fd5b8035906020019184600183028401116401000000008311171561018a57600080fd5b91908080601f016020809104026020016040519081016040528093929190818152602001838380828437600081840152601f19601f820116905080830192505050505050509192919290803590602001909291905050506103e3565b604051808215151515815260200191505060405180910390f35b61035a6004803603606081101561021657600080fd5b810190808035906020019064010000000081111561023357600080fd5b82018360208201111561024557600080fd5b8035906020019184600183028401116401000000008311171561026757600080fd5b91908080601f016020809104026020016040519081016040528093929190818152602001838380828437600081840152601f19601f820116905080830192505050505050509192919290803590602001906401000000008111156102ca57600080fd5b8201836020820111156102dc57600080fd5b803590602001918460018302840111640100000000831117156102fe57600080fd5b91908080601f016020809104026020016040519081016040528093929190818152602001838380828437600081840152601f19601f8201169050808301925050505050505091929192908035906020019092919050505061046a565b005b6000816001846040518082805190602001908083835b602083106103955780518252602082019150602081019050602083039250610372565b6001836020036101000a03801982511681845116808217855250505050505090500191505090815260200160405180910390205414156103d857600190506103dd565b600090505b92915050565b6000816000846040518082805190602001908083835b6020831061041c57805182526020820191506020810190506020830392506103f9565b6001836020036101000a038019825116818451168082178552505050505050905001915050908152602001604051809103902054141561045f5760019050610464565b600090505b92915050565b806001836040518082805190602001908083835b602083106104a1578051825260208201915060208101905060208303925061047e565b6001836020036101000a038019825116818451168082178552505050505050905001915050908152602001604051809103902081905550806000846040518082805190602001908083835b6020831061050f57805182526020820191506020810190506020830392506104ec565b6001836020036101000a03801982511681845116808217855250505050505090500191505090815260200160405180910390208190555050505056fea265627a7a723158204a6019bad67471f5c05f5296adcfbc5ec68ccdd6a55e091dfd74e998ef7e71a464736f6c63430005100032",
  "source": "// SPDX-License-Identifier: GPL-3.0\r\n\r\npragma solidity >=0.5.0 <0.9.0;\r\n\r\ncontract Certificate {\r\n    \r\n    mapping (string => uint256) fileHashUserId;\r\n    mapping (string => uint256) summaryHashUserId;\r\n            \r\n    function isFileHashUserIdExists(string memory _fileHash, uint256 _userId) \r\n        public view returns(bool)\r\n    {\r\n        if (fileHashUserId[_fileHash] == _userId) {\r\n            return true;\r\n        }\r\n        \r\n        return false;\r\n    }\r\n\r\n    function saveUserIdHashes(string memory _fileHash, string memory _summaryHash, uint256 _userId) \r\n        public\r\n    {   \r\n       summaryHashUserId[_summaryHash] = _userId;\r\n       fileHashUserId[_fileHash] = _userId;\r\n    }\r\n\r\n    function isSummaryHashUserIdExists(string memory _summaryHash, uint256 _userId) \r\n        public view returns(bool)\r\n    {\r\n        if (summaryHashUserId[_summaryHash] == _userId) {\r\n            return true;\r\n        }\r\n        \r\n        return false;\r\n    }\r\n}",
  "sourcePath": "C:/Repos/capstone/jeng/BCI/bci-web/blockchain/contracts/Certificate.sol",
  "compiler": {
    "name": "solc",
    "version": "0.5.16+commit.9c3226ce.Emscripten.clang"
  },
  "schemaVersion": "3.3.2",
  "updatedAt": "2021-12-08T13:07:38.834Z",
  "networkType": "ethereum",
  "devdoc": {
    "methods": {}
  },
  "userdoc": {
    "methods": {}
  }
}