{
  "contractName": "Certificate",
  "abi": [
    {
      "inputs": [],
      "payable": false,
      "stateMutability": "nonpayable",
      "type": "constructor"
    },
    {
      "constant": false,
      "inputs": [
        {
          "internalType": "string",
          "name": "_fileHash",
          "type": "string"
        },
        {
          "internalType": "uint256",
          "name": "_userId",
          "type": "uint256"
        }
      ],
      "name": "saveFileHashUserId",
      "outputs": [],
      "payable": false,
      "stateMutability": "nonpayable",
      "type": "function"
    },
    {
      "constant": true,
      "inputs": [
        {
          "internalType": "string",
          "name": "_fileHash",
          "type": "string"
        },
        {
          "internalType": "uint256",
          "name": "_userId",
          "type": "uint256"
        }
      ],
      "name": "isFileHashUserIdExists",
      "outputs": [
        {
          "internalType": "bool",
          "name": "",
          "type": "bool"
        }
      ],
      "payable": false,
      "stateMutability": "view",
      "type": "function"
    }
  ],
  "bytecode": "0x608060405234801561001057600080fd5b5061030b806100206000396000f3fe608060405234801561001057600080fd5b50600436106100365760003560e01c80636aaf09631461003b5780638dfab00814610118575b600080fd5b6100fe6004803603604081101561005157600080fd5b810190808035906020019064010000000081111561006e57600080fd5b82018360208201111561008057600080fd5b803590602001918460018302840111640100000000831117156100a257600080fd5b91908080601f016020809104026020016040519081016040528093929190818152602001838380828437600081840152601f19601f820116905080830192505050505050509192919290803590602001909291905050506101dd565b604051808215151515815260200191505060405180910390f35b6101db6004803603604081101561012e57600080fd5b810190808035906020019064010000000081111561014b57600080fd5b82018360208201111561015d57600080fd5b8035906020019184600183028401116401000000008311171561017f57600080fd5b91908080601f016020809104026020016040519081016040528093929190818152602001838380828437600081840152601f19601f82011690508083019250505050505050919291929080359060200190929190505050610264565b005b6000816000846040518082805190602001908083835b6020831061021657805182526020820191506020810190506020830392506101f3565b6001836020036101000a0380198251168184511680821785525050505050509050019150509081526020016040518091039020541415610259576001905061025e565b600090505b92915050565b806000836040518082805190602001908083835b6020831061029b5780518252602082019150602081019050602083039250610278565b6001836020036101000a038019825116818451168082178552505050505050905001915050908152602001604051809103902081905550505056fea265627a7a723158209bf05bffc73ee1747a2d759c05e080fbbed17111544d59863959f892c2f6cca464736f6c63430005100032",
  "source": "// SPDX-License-Identifier: GPL-3.0\r\n\r\npragma solidity >=0.5.0 <0.9.0;\r\n\r\ncontract Certificate {\r\n    \r\n    mapping (string => uint256) fileHashUserId;\r\n    \r\n    constructor() public {}\r\n    \r\n    function saveFileHashUserId(string memory _fileHash, uint256 _userId) \r\n        public\r\n    {   \r\n       fileHashUserId[_fileHash] = _userId;\r\n    }\r\n    \r\n    function isFileHashUserIdExists(string memory _fileHash, uint256 _userId) \r\n        public view returns(bool)\r\n    {\r\n        if (fileHashUserId[_fileHash] == _userId) {\r\n            return true;\r\n        }\r\n        \r\n        return false;\r\n    }\r\n}",
  "sourcePath": "C:\\Repos\\capstone\\jeng\\BCI\\bci-web\\blockchain\\contracts\\Certificate.sol",
  "compiler": {
    "name": "solc",
    "version": "0.5.16+commit.9c3226ce.Emscripten.clang"
  },
  "schemaVersion": "3.4.3",
  "updatedAt": "2021-10-26T14:19:24.786Z",
  "networkType": "ethereum",
  "devdoc": {
    "methods": {}
  },
  "userdoc": {
    "methods": {}
  }
}