{
  "contractName": "Certificate",
  "abi": [
    {
      "constant": true,
      "inputs": [
        {
          "internalType": "string",
          "name": "_fileHash",
          "type": "string"
        }
      ],
      "name": "getFileHash",
      "outputs": [
        {
          "internalType": "uint256",
          "name": "",
          "type": "uint256"
        }
      ],
      "payable": false,
      "stateMutability": "view",
      "type": "function"
    },
    {
      "constant": true,
      "inputs": [
        {
          "internalType": "string",
          "name": "_summaryHash",
          "type": "string"
        }
      ],
      "name": "getSummaryHash",
      "outputs": [
        {
          "internalType": "uint256",
          "name": "",
          "type": "uint256"
        }
      ],
      "payable": false,
      "stateMutability": "view",
      "type": "function"
    },
    {
      "constant": true,
      "inputs": [
        {
          "internalType": "string",
          "name": "_fileHash",
          "type": "string"
        },
        {
          "internalType": "uint256",
          "name": "_userId",
          "type": "uint256"
        }
      ],
      "name": "isFileHashUserIdExists",
      "outputs": [
        {
          "internalType": "bool",
          "name": "",
          "type": "bool"
        }
      ],
      "payable": false,
      "stateMutability": "view",
      "type": "function"
    },
    {
      "constant": false,
      "inputs": [
        {
          "internalType": "string",
          "name": "_fileHash",
          "type": "string"
        },
        {
          "internalType": "string",
          "name": "_summaryHash",
          "type": "string"
        },
        {
          "internalType": "uint256",
          "name": "_userId",
          "type": "uint256"
        }
      ],
      "name": "saveUserIdHashes",
      "outputs": [],
      "payable": false,
      "stateMutability": "nonpayable",
      "type": "function"
    },
    {
      "constant": true,
      "inputs": [
        {
          "internalType": "string",
          "name": "_summaryHash",
          "type": "string"
        },
        {
          "internalType": "uint256",
          "name": "_userId",
          "type": "uint256"
        }
      ],
      "name": "isSummaryHashUserIdExists",
      "outputs": [
        {
          "internalType": "bool",
          "name": "",
          "type": "bool"
        }
      ],
      "payable": false,
      "stateMutability": "view",
      "type": "function"
    }
  ],
  "bytecode": "0x608060405234801561001057600080fd5b5061058a806100206000396000f3fe608060405234801561001057600080fd5b50600436106100575760003560e01c8063319ac7251461005c5780636aaf09631461013957806370828d89146101d4578063dc09615c146102ac578063f880680b14610339575b600080fd5b61011f6004803603604081101561007257600080fd5b810190808035906020019064010000000081111561008f57600080fd5b8201836020820111156100a157600080fd5b803590602001918460018302840111640100000000831117156100c357600080fd5b91908080601f016020809104026020016040519081016040528093929190818152602001838380828437600081840152601f19601f820116905080830192505050505050509192919290803590602001909291905050506103c6565b604051808215151515815260200191505060405180910390f35b6101ba6004803603604081101561014f57600080fd5b810190808035906020019064010000000081111561016c57600080fd5b82018360208201111561017e57600080fd5b803590602001918460018302840111640100000000831117156101a057600080fd5b90919293919293908035906020019092919050505061044d565b604051808215151515815260200191505060405180910390f35b6102aa600480360360608110156101ea57600080fd5b810190808035906020019064010000000081111561020757600080fd5b82018360208201111561021957600080fd5b8035906020019184600183028401116401000000008311171561023b57600080fd5b90919293919293908035906020019064010000000081111561025c57600080fd5b82018360208201111561026e57600080fd5b8035906020019184600183028401116401000000008311171561029057600080fd5b909192939192939080359060200190929190505050610493565b005b610323600480360360208110156102c257600080fd5b81019080803590602001906401000000008111156102df57600080fd5b8201836020820111156102f157600080fd5b8035906020019184600183028401116401000000008311171561031357600080fd5b90919293919293905050506104f2565b6040518082815260200191505060405180910390f35b6103b06004803603602081101561034f57600080fd5b810190808035906020019064010000000081111561036c57600080fd5b82018360208201111561037e57600080fd5b803590602001918460018302840111640100000000831117156103a057600080fd5b9091929391929390505050610524565b6040518082815260200191505060405180910390f35b6000816001846040518082805190602001908083835b602083106103ff57805182526020820191506020810190506020830392506103dc565b6001836020036101000a03801982511681845116808217855250505050505090500191505090815260200160405180910390205414156104425760019050610447565b600090505b92915050565b600081600085856040518083838082843780830192505050925050509081526020016040518091039020541415610487576001905061048c565b600090505b9392505050565b806001848460405180838380828437808301925050509250505090815260200160405180910390208190555080600086866040518083838082843780830192505050925050509081526020016040518091039020819055505050505050565b600060018383604051808383808284378083019250505092505050908152602001604051809103902054905092915050565b600080838360405180838380828437808301925050509250505090815260200160405180910390205490509291505056fea265627a7a723158206120173136b8f530511c2c910ee3d5c8829d9578487d7fea291481a43cb0356264736f6c63430005100032",
  "source": "// SPDX-License-Identifier: GPL-3.0\r\n\r\npragma solidity >=0.5.0 <0.9.0;\r\n\r\ncontract Certificate {\r\n    mapping(string => uint256) fileHashUserId;\r\n    mapping(string => uint256) summaryHashUserId;\r\n\r\n    function getFileHash(string calldata _fileHash)\r\n        external\r\n        view\r\n        returns (uint256)\r\n    {\r\n        return fileHashUserId[_fileHash];\r\n    }\r\n\r\n    function getSummaryHash(string calldata _summaryHash)\r\n        external\r\n        view\r\n        returns (uint256)\r\n    {\r\n        return summaryHashUserId[_summaryHash];\r\n    }\r\n\r\n    function isFileHashUserIdExists(string calldata _fileHash, uint256 _userId)\r\n        external\r\n        view\r\n        returns (bool)\r\n    {\r\n        if (fileHashUserId[_fileHash] == _userId) {\r\n            return true;\r\n        }\r\n\r\n        return false;\r\n    }\r\n\r\n    function saveUserIdHashes(\r\n        string calldata _fileHash,\r\n        string calldata _summaryHash,\r\n        uint256 _userId\r\n    ) external {\r\n        summaryHashUserId[_summaryHash] = _userId;\r\n        fileHashUserId[_fileHash] = _userId;\r\n    }\r\n\r\n    function isSummaryHashUserIdExists(\r\n        string memory _summaryHash,\r\n        uint256 _userId\r\n    ) public view returns (bool) {\r\n        if (summaryHashUserId[_summaryHash] == _userId) {\r\n            return true;\r\n        }\r\n\r\n        return false;\r\n    }\r\n}\r\n",
  "sourcePath": "c:\\Repos\\capstone\\jeng\\BCI\\bci-web\\blockchain\\contracts\\Certificate.sol",
  "compiler": {
    "name": "solc",
    "version": "0.5.16+commit.9c3226ce.Emscripten.clang"
  },
  "schemaVersion": "3.4.3",
  "updatedAt": "2022-01-02T07:53:09.761Z",
  "devdoc": {
    "methods": {}
  },
  "userdoc": {
    "methods": {}
  }
}